:020000040800F2
:10400000E06B00206542000831B4000891A9000867
:104010000DAE00080560000879CC00080000000023
:10402000000000000000000000000000D9BD0008F2
:10403000F562000800000000ADB40008ADBE000845
:104040007F4200087F4200087F42000855BC0008FC
:104050007F4200087F4200087F4200087F4200083C
:104060007F420008016300087F4200087F42000889
:104070007F4200087F4200087F4200087F4200081C
:104080007F4200087F4200087F4200087F4200080C
:104090007F4200087F4200087F4200080B6300084F
:1040A0007F420008CDBF00087F4200087F42000821
:1040B0007F4200087F4200087F4200087F420008DC
:1040C0007F4200087F4200087F4200087F420008CC
:1040D0007F42000859CC000869CC00087F420008E4
:1040E000F76200087F4200087F4200087F42000814
:1040F0007F4200087F4200087F4200087F4200089C
:104100007F4200087F4200087F4200087F4200088B
:104110007F4200087F4200087F4200087F4200087B
:104120007F4200087F4200087F4200087F4200086B
:104130007F4200087F4200087F4200087F4200085B
:104140007F4200087F4200087F4200087F4200084B
:104150007F4200087F4200087F4200087F4200083B
:104160007F4200087F4200087F4200087F4200082B
:104170007F4200087F4200087F42000800000000E4
:104180007F4200087F42000800F002F800F05BF870
:104190000AA090E8000C82448344AAF10107DA45A2
:1041A00001D100F050F8AFF2090EBAE80F0013F099
:1041B000010F18BFFB1A43F00103184744BB00006E
:1041C00064BB0000103A24BF78C878C1FAD85207FF
:1041D00024BF30C830C144BF04680C607047000081
:1041E0000023002400250026103A28BF78C1FBD800
:1041F000520728BF30C148BF0B60704766290BF0DB
:10420000F783642900F05A81752900F057817829D5
:1042100000F09081732900F01487002070471FB5CB
:104220000BF0E1FB00F078FF0400002000210BF010
:104230004DFB401C6060002000210BF031FBE06072
:104240001FBD10B510BD01F03DFA1146FFF7E7FFA5
:104250000AF082F801F064FA03B4FFF7F2FF03BC3E
:1042600001F0A8FA0948804709480047FEE7FEE741
:10427000FEE7FEE7FEE7FEE7FEE7FEE7FEE7FEE716
:1042800004480549054A064B704700007DBF0008F9
:1042900089410008E00B0020E06B0020E03B00209B
:1042A000E03B002053EA020C00F069802DE9F04B5E
:1042B0004FF00006002B1FBFB3FA83F503FA05F495
:1042C00024FA05F65E4012BF1643B2FA82F502FAEE
:1042D00005F4C5F120051EBF22FA05FC44EA0C04D2
:1042E000203556EA044C4FEA144418BF641C4FF0C2
:1042F00000084FF00009904271EB030C39D30029FC
:1043000019BFB1FA81F701FA07F6B0FA80F700FA9F
:1043100007F6C7F120071EBF20FA07FC46EA0C0685
:104320002037B6FBF4FCA7EB0507103F07F01F0B87
:10433000CBF120060CFA0BFB2CFA06F644BFB34671
:104340000026202FA4BF5E464FF0000B5BEA060C50
:1043500008BF4FF0010B19EB0B09ABFB027C48EBDC
:104360000608C01B06FB02CC0BFB03CC71EB0C0157
:10437000C1E70B46024641464846BDE8F08B13B5FF
:104380004FF000004FF00001AFF30080BDE81C408B
:104390007047B2F120030AD5C2F1200301FA02F1FD
:1043A00020FA03F300FA02F041EA0301704700FA31
:1043B00003F14FF0000070470FB41CB5084B06AA7C
:1043C0007B4469460090059800F009FE04460020F1
:1043D000694600F017FE20461CBC5DF814FB000087
:1043E000410C00000FB47CB50C0009AA009001D06C
:1043F0002044401E084B7B4469460190089800F019
:10440000EEFD05461CB10020694600F0FBFD284684
:104410007CBC5DF814FB0000150C000070B5044670
:1044200085690068C10601D5302600E02026C00756
:1044300007D070BDD4E9012130469047206A401C66
:1044400020626D1EF6D570BD70B504468569007892
:10445000C00707D170BDD4E9012120209047206A10
:10446000401C20626D1EF6D570BD70B50C46054629
:10447000012A05D02878800600D5EA69002302E0E9
:10448000012305E05B1C934202D2E05C0028F9D1D5
:10449000A869E618C01AA861286A18442862284644
:1044A000FFF7BCFF04E0D5E9012114F8010B9047A8
:1044B000B442F8D32846FFF7C7FF70BD2DE9F0419D
:1044C0000646002410687529314616A510D0AFF3B2
:1044D0000080002802DA404213A507E031688A070D
:1044E00001D512A502E0490704D511A5012401E078
:1044F000AFF3008000210A2206F1240709E0B0FB97
:10450000F2FCB0FBF2F302FB1C003030785418468A
:10451000491C0028F3D123462A463046BDE8F04125
:1045200000F0ECBA000000002D0000002B0000009D
:104530002000000070B504460D4621461068AFF318
:1045400000802188090502D50F4A7A4402E00E4A0C
:104550007A440E32002104F1240305E000F00F0636
:104560000009965D5E54491C0028F7D1207800238D
:10457000000704D5702D02D009B102231132204664
:10458000BDE8704000F0BABA12B500002DE9F05F46
:10459000894604464FF0000ADFF874B1FB44C0F8C6
:1045A00020A02046E1688847002874D0252806D03E
:1045B000D4E901219047206A401C2062F1E70026DF
:1045C0005F462046E16888472028054607DB312DF5
:1045D00005D2781910F8200C08B10643F1E7B007AE
:1045E00001D526F00406C4F81CA00027C4F818A0C2
:1045F0002A2D09D0284608F015FC38B304EB8708AB
:10460000303DC8F8185019E059F8041B204604EB57
:1046100087029161E1688847012F054618D1E0695A
:10462000002820DA26F020061DE0D8F8180000EB5C
:10463000800005EB40003038C8F818002046E168DB
:104640008847054608F0EEFB0028EED1012F0AD07E
:104650002E2D08D12046E16888477F1C0546022F91
:1046600046F02006C4DBA069002803DA404246F089
:104670000106A061F00701D026F010066C2D0BD0CA
:10468000682D09D04C2D39D06A2D35D0742D35D0F8
:104690007A2D33D016E038E0E1682F46204688476F
:1046A000B842054609D16C2F26D04FF48060E168EE
:1046B000064320468847054604E06C2F1AD04FF485
:1046C000807006430DB3A5F14100192802D82035AA
:1046D00046F400664A462946204626604E46FFF7C5
:1046E0008DFD80B101280BD0F61D26F0070000F1EA
:1046F000080956E74020E4E78020D8E70020D6E705
:1047000006F104094DE7284652E7206A00F002B896
:10471000E8B4000030BCBDE8C09F00000FB400B595
:104720008DB010A9099000910B904FF0FF300A90C6
:1047300000200C90064878440690064878446A4663
:1047400007900F9909A800F095FC0DB05DF814FBD7
:104750005B090000730900002DE9FF5F1D464FF063
:10476000FF3B91464FF000085F46D5E90146A96935
:1047700001987F1C8847296A824688470028F6D11D
:10478000BAF1FF3F0CD0002E24F4C06419DD60069E
:1047900014D5BAF12B0F09D0BAF12D0F0ED103E0C9
:1047A000584604B000F07EB844F48064A9690198CA
:1047B0007F1C8847761E8246002E02DDBAF1300F3C
:1047C00003D0B9F1000F26D032E0A969761E019816
:1047D0007F1C44F400748847002E824605DDBAF140
:1047E000780F06D0BAF1580F03D0B9F1000F10D0EE
:1047F0001EE0B9F1000F02D0B9F1100F18D1A9696C
:10480000761E01987F1C24F400748847824610208D
:1048100002E0082000E00A20814609E0A96908FBBF
:104820000908761E01987F1C44F40074884782466C
:10483000002E05DD4946504600F007FC0028EDDA61
:10484000E96901988847A00502D46FF00100A8E744
:10485000E00725D1600613D5600502D5C8F1000038
:1048600000E0404629680A1D2A600968220501D532
:10487000087015E0220701D5088011E008600FE0FC
:104880002868011D29600068210502D580F8008094
:1048900006E0210702D5A0F8008001E0C0F8008002
:1048A00038467EE730BCBDE8C09F0000014A00F0FA
:1048B00011BC0000E801002000F00CBC30B503463C
:1048C0001D783DB10A4612F8014B1CB1AC42FAD139
:1048D0005B1CF5E7181A30BD30B505460B462A4675
:1048E00013F8014B12F8010B08B1A042F8D01CB12B
:1048F000002802D06D1CF1E7284630BD40EA0103D4
:10490000024630B59B0710D14FF0013400E008C2D9
:1049100008C91D1B9D4315EAC41FF8D013F0FF0101
:1049200002F8011B0DD01B0AF8E711F8013B002B20
:1049300002F8013B05D011F8013B002B02F8013BC6
:10494000F3D130BD10B5431C02E010F8011B71B16A
:104950008107FAD14FF0013202C88C1A8C4314EA55
:10496000C211F9D0C01A0A0603D0C01E10BDC01A69
:1049700010BD0A0401D0801E10BD0902FCD0401EEB
:1049800010BD421E12F8013F002BFBD111F8013B74
:10499000002B02F8013BF9D1704710B5203AC0F066
:1049A0000B80B1E81850203AA0E81850B1E8185030
:1049B000A0E81850BFF4F5AF5FEA027C24BFB1E86D
:1049C0001850A0E8185044BF18C918C0BDE81040DE
:1049D0005FEA827C24BF51F8043B40F8043B08BFE7
:1049E0007047D20728BF31F8023B48BF11F8012BAE
:1049F00028BF20F8023B48BF00F8012B704702F0A7
:104A0000FF0343EA032242EA024200F002B84FF0F9
:104A100000020429C0F0128010F0030C00F01B808B
:104A2000CCF1040CBCF1020F18BF00F8012BA8BF99
:104A300020F8022BA1EB0C0100F00DB85FEAC17C5D
:104A400024BF00F8012B00F8012B48BF00F8012B10
:104A500070474FF0000200B5134694469646203941
:104A600022BFA0E80C50A0E80C50B1F12001BFF427
:104A7000F7AF090728BFA0E80C5048BF0CC05DF88D
:104A800004EB890028BF40F8042B08BF704748BFDB
:104A900020F8022B11F0804F18BF00F8012B70474F
:104AA00010B5044610F0030F08BF11F0030F40F0DB
:104AB00015804FF0013E121FC0F20E8051F8043BEA
:104AC000A3EB0E0C2CEA030C1CEACE1C08BF40F82A
:104AD000043BF0D0A1F1040102F10402521E08DBF4
:104AE00011F8013B002B00F8013BF7D11146FFF70D
:104AF0008EFF204610BD7047704770472DE9F04784
:104B00000D4699469246044600F12408016888063D
:104B100004D5E06921F01001216000E00120A842E5
:104B200001DD471B00E00027A1697A1902EB0900AB
:104B3000081AA0612078C00602D42046FFF76EFC58
:104B4000002608E0D4E901211AF806009047206AFF
:104B5000401C761C20624E45F4DB2078C0060AD546
:104B60002046FFF75BFC06E0D4E9012130209047A6
:104B7000206A401C2062381EA7F10107F4DC07E020
:104B8000D4E9012118F805009047206A401C2062F2
:104B9000281EA5F10105F3DC2046FFF755FC20781F
:104BA000000602D50220BDE8F0870120FBE7704730
:104BB0002DE9FF4F0C461E464FF0FF378BB0D2E970
:104BC0000001DDF860800A908A46C1F30A5505B9F4
:104BD0003D46002108464FF00000BAF1000F00F4F6
:104BE000400005DA00EB80004FF4400101EA50007C
:104BF0004FEA9059B9F1010F00DDB9460A9850EA21
:104C00004A000ED044F61050A5F2FF3545432F144C
:104C1000B8F1000F1ED07542291E1EDDC9F1000239
:104C20001CE0B8F1010F4FF0000001D0302103E08B
:104C3000F24305E02154401CB042FBDB3046002229
:104C4000002121540B99C1F80880C1E900200FB060
:104C500000F0BCB9BD1B6D1CDEE74A4600DA6942B4
:104C600006A800F0A9FC06AB93E8070003AB83E8B5
:104C7000070050460A9900F0A4FD8DE80700A0F552
:104C800000501F3800900398002D0ADD42F21F01EA
:104C90004A460844002303A90390684601F00DF832
:104CA00009E0A0F500504A461F38002303A90390ED
:104CB000684601F017F88DE807000004000C03D0E7
:104CC0004FF0FF30410800E01046B8F1000F03D06C
:104CD0000022009215461EE0751E05D400F020FA51
:104CE000303262556D1EF9D5B3460122084302D019
:104CF00000227F1C04E02078302801D100227F1E92
:104D0000002A099784D01DE0112D07DA00F008FA77
:104D1000303262556D1C50EA0102F5D1084302D0D1
:104D20000098C8B10EE00021681E05E0235C625CBB
:104D300063542254401E491C8142F7DBAB46A81B3A
:104D4000401E0990002004F80B000B98099AC0F847
:104D50000880C0E9002B7AE711264FF0000857E7DA
:104D60002DE9F04F88460446D21D22F0070191B08C
:104D7000D1E90001CDE90A0108F020F802460B98BC
:104D8000C00F01D02D2007E02068810701D52B201E
:104D900002E0202101EAC000032A099001D0072A7D
:104DA00005DB03464146204600F008FA0BE1207877
:104DB000800601D5E06900E00620B8F1650F814664
:104DC00006D0B8F1660F18D0B8F1670F70D131E096
:104DD0000020B9F1110F009001DB112301E009F16E
:104DE00001030AAA01A90CA8FFF7E2FEDDE90C7095
:104DF000002609F10105834647E001204B4600905B
:104E00004FF000470AAA01A90CA8FFF7D1FEDDE97F
:104E10000DB00C995D46002610B909F101000D187E
:104E2000B9EB050003D4C0F1FF3609F10105A5EB8C
:104E300009002BE0B9F1010F01DA4FF00109002060
:104E4000B9F1110F0090484601DD112300E003463F
:104E50000AAA01A90CA8FFF7ABFEDDE90C704D46CC
:104E600000268346207800070AD4AB4500DA5D4669
:104E700001A8012D04DD411911F8011C302907D0CA
:104E80004F4502DA17F1040F04DA012082460FE0E1
:104E90006D1EEEE7002F02DCED1B3E4403E0781CA4
:104EA000A84200DD7D1CB81B00F1010A4FF000474D
:104EB0002078000703D4AA4501DB4FF0FF3A002118
:104EC000B7F1004F0DF143088DF8431024D00220B4
:104ED0002B23002F01DA7F422D230A21021EA0F18D
:104EE000010000DC5FB197FBF1FC97FBF1F201FBE5
:104EF0001C7C17460CF1300C08F801CDEEE7A8F148
:104F0000010003702188090501D5452100E06521D4
:104F1000A0F1010800F8011C09980FA9A1EB0807EE
:104F2000FF1D00B10120411901EBEA70A16938446D
:104F3000081A401EA0612078C00602D42046FFF760
:104F40006DFA099828B1D4E901219047206A401CE4
:104F500020622078C00622D52046FFF75FFA1EE0C7
:104F6000002E04DBB34502DD01A8805D00E03020A7
:104F7000D4E901219047206A401C2062761CAAF1E6
:104F800001005FEA000A0AD100F0C6F8C0680168B3
:104F9000405CD4E901219047206A401C2062281E11
:104FA000A5F10105DCDC07E0D4E9012118F8010BCB
:104FB0009047206A401C2062381EA7F10107F3DCED
:104FC0002046FFF741FA032011B041E630BCBDE8AE
:104FD000C08F000001694A1C02610878704700B563
:104FE0008FB0CDE901310021059105497944CDE922
:104FF000031011466846FFF7C9FA0FB000BD000064
:10500000E5FFFFFF0A6802F8010B0A607047D1E96B
:1050100000239A4202D2531C0B601070704710B5E7
:10502000436913B1AFF3008001E0FFF71EFA0120DE
:1050300010BD127800F124010A7000224A7001228A
:10504000EDE711684FF0FF32E9E73A2800D2303837
:1050500020F02002412A01D3A2F13700884201D377
:105060004FF0FF3070470000026811441378016070
:1050700018467047D1600549794451610449794423
:10508000116200211161114600F0D8B8EDFFFFFF59
:1050900029010000426842B1016811F8013B23B1C7
:1050A000521EC0E90012184670470121C160881ED7
:1050B000704742685AB1C368016843B983688B423C
:1050C00005D0491E521CC0E90012002070474FF065
:1050D000FF3070472DE9F04115460E46040002D11D
:1050E0002C6804B90BA42046FFF7E8FB04442078A1
:1050F00070B127463146384600F0D0FA0444207893
:1051000010B1002004F8010B38462C60BDE8F08196
:105110000027F9E700000000004870479C0B0020C2
:1051200030B5B0F10A024FEA900E71F100034EEA79
:10513000817EB0EB0E0061EB91014FEA101E4EEA4A
:10514000017E10EB0E0041EB11114FEA102E4EEADA
:10515000016E10EB0E0041EB11214FEA104E4EEAAA
:10516000014E10EB0E0041EB1141401841F10001DE
:105170004FEAD00040EA41704FEAD10110EB8005C0
:105180004FEA810444EA907444EB01046D1944EB46
:105190000404521BA3414FF0000348BF0A3200D55C
:1051A00030BD401C41F1000130BD10B5044600F097
:1051B000AFFA0068005D00F0010010BD2DE9F0417C
:1051C0001F46044603260168072A01F4006004DB39
:1051D00008B116A505E016A503E008B115A500E085
:1051E00015A521F010002060A069C01EA0610FB1BC
:1051F000401EA0612046FFF711F94FB1D4E901210B
:1052000038469047206A401C2062C01C206206E09D
:10521000206AFAE7D4E9012115F8010B9047761EC0
:10522000F8D22046FFF710F9BDE8F0814E414E005C
:105230006E616E00494E4600696E66002DE9F34FBF
:105240004FF0000A0C4656468DB001200C9001F13B
:105250000C000B9062690B9801219047051E2DD020
:10526000252D2CD0216A8847C0B162690B98012195
:105270009047216A88470028F7D16269411E0B9840
:10528000904700E0761CA1690D988847216A8847FD
:105290000028F7D1E1690D988847DBE7A1690D98EF
:1052A0008847A842074601D1761CD3E7E1690D98EB
:1052B00088477F1C02D1BAF1000F6FD06CE16269A0
:1052C0000B9800273D46394690472A2804D1626949
:1052D0000B98012190470125DFF8D08262690B9875
:1052E00001219047A0F130010A290AD24745E5DCA7
:1052F00007EB870100EB4107303FDFD445F0100595
:10530000ECE7E90601D46FF000476C280AD04C287E
:1053100014D0682815D06A280DD074281CD07A289B
:105320001AD01DE062690B98012190476C2802D0C9
:1053300045F0040514E045F002050DE045F02005B8
:105340000AE062690B9801219047682802D045F075
:10535000080505E045F4006562690B980121904756
:10536000C4E9015765283DD019DC58287AD00CDCF7
:10537000452837D004DC252826D041289ED131E0AD
:1053800046282FD0472899D12CE05B2877D0612878
:1053900028D063287CD0642823D15AE0F7E06F2816
:1053A00048D008DC66281DD067281BD0692821D08A
:1053B0006E2816D127E0702845D0732868D075284C
:1053C00047D078280DD14DE0A1690D988847252850
:1053D00005463FF469AFE1690D9888476D1C3FF4BD
:1053E0006AAFD9E00D9923466A466FF00100AFF32A
:1053F0000080C6E045F0400023464FF000026060A8
:10540000A80736D43EE0E8077FF447AF2068011DC7
:1054100021600068290501D506701BE7290701D521
:10542000068017E7A90703D5F117C0E9006111E766
:1054300006600FE745F0400023464FF00802606029
:10544000A80716D41EE040F60E0125EA01006060B0
:1054500016E045F0400023464FF00A026060A807BE
:1054600007D40FE045F040006060A80708D5234648
:1054700010220D996FF00100AFF3008081E007E08A
:10548000102223460D996FF00100FFF765F978E0CF
:105490004FF0000963284F46C8464B46CB4602D022
:1054A0005B2807D039E02079C00601D40120A06034
:1054B000012732E06269D4F80CB00B9801219047C3
:1054C0005E2807D14FF0010949466269D4F80CB053
:1054D0000B989047216939B900210A4603AB43F87C
:1054E0002120491C0829FADBD8B3216949B308F106
:1054F000010862690B98012190475D28F4D1B9F148
:10550000000F09D0002003A951F82020D24341F810
:105510002020401C0828F7DB03AB206900282079F5
:105520004FEA40701ED05B462246CDF80080CDE9A0
:1055300001970D9900286FF0010020DAAFF3008089
:105540001FE0C11703AA00EBD1614B1121F01F012D
:1055500002EB8302411A1368012088400343136061
:10556000C7E719E00D99224600286FF00100009767
:1055700002DAAFF3008004E0AFF3008001E0AFF3A4
:10558000008000280ADA401C06D10C9820B14FF0A8
:10559000FF300FB000F00CB85046FAE7E90701D130
:1055A0000AF1010A064400200C9053E6CCCCCC0C46
:1055B00030BCBDE8C08F00002DE9F047814616469B
:1055C0008AB0354878440DC88DE80D0032487844DB
:1055D000801C03AC0DC884E80D0041F69B300844E4
:1055E000372190FBF1F290FBF1F5A5F1800501FB6D
:1055F00012041B3C02D56442012000E00020DFF8C9
:1056000098A080460027FA44AAF1BE0A0EE0E007FF
:105610000AD03246684607EB470101230AEB8101B5
:1056200000F060FB8DE8070064107F1C002CEED1B9
:10563000194F7F44AE3F19E0E80715D007EB04107F
:105640000DF1180A90E80E008AE80E00C068F042DA
:1056500001D1981908903246012306A903A800F049
:1056600041FB03AB83E807006D10641C002DE3D100
:105670004FF0010332466946B8F1000F03A802D08B
:1056800000F01BFB01E000F02DFBC9E90001C9F8A7
:1056900008200AB0BDE8F08750A5000030B50346E9
:1056A0001D781DB10A4603E0AC4201D1181A30BD85
:1056B00012F8014B002CF7D15B1CF1E70048704752
:1056C0007C0B00207546FFF7F9FFAE4605006946E2
:1056D000534620F00700854618B020B5FEF7D0FDF0
:1056E000BDE820404FF000064FF000074FF00008E3
:1056F0004FF0000B21F00701AC46ACE8C009ACE864
:10570000C009ACE8C009ACE8C0098D46704700008C
:1057100010B5FFF701FD001D10BD00BFB1A10000D5
:1057200010B50446AFF300802046BDE81040FEF7F8
:1057300093BD00004FF0013C50F8042B51F8043B9E
:105740009A4221D1A2EB0C03934313EACC1317D155
:1057500050F8042B51F8043B9A4215D1A2EB0C03EC
:10576000934313EACC130BD150F8042B51F8043BAC
:105770009A4209D1A2EB0C03934313EACC13DBD07A
:105780004FF00000704700BFD01A01BAB1FA81F1A2
:1057900001F0180122FA01F0CB40C1F12001DBB287
:1057A000C0B2C01A2CFA01F3D11A914311EAC31105
:1057B000E6D1704701491820ABBEFEE72600020083
:1057C00070475FEA400C08BF91F0000F4FEA8C234E
:1057D0004FEAC12243EA51514FEA1C5018BF00F56D
:1057E000F0404FEA300018BF41F000415FEA6C5CC6
:1057F00000F02980BCF1FF3F08BF40F080407047B7
:10580000130C06BF12044FF0100C4FF0000C130ED7
:1058100004BF12020CF1080C130F04BF12010CF1AB
:10582000040C930F04BF92000CF1020CD30F04BFC1
:1058300052000CF1010C11464FF00002A0F11F00C4
:10584000A0EB0C00704711F0004F08BF704731F01B
:1058500000413FF4D5AF0B0C06BF09044FF0100C0C
:105860004FF0000C0B0E04BF09020CF1080C0B0FDB
:1058700004BF09010CF1040C8B0F04BF89000CF16B
:10588000020CCB0F04BF49000CF1010CCCF120033A
:10589000A0EB0C0022FA03F302FA0CF241EA030136
:1058A00000F10100704720F07F4C80EA030023F0F4
:1058B0007F47ACEB070303F57C5300F0004003F196
:1058C000FF032DE980494FEA154B09B44FEA144311
:1058D00025EA0B4E24EA03480FF2042606EB1327B1
:1058E00049083E785FEA320203FB0667C7F5000706
:1058F00007FB06F64FEA54374FEAD64606F1020692
:1059000007FB066CCCF1005C4FEA1C472CEA074C05
:1059100007FB06F40CFB06F504EB15464FEA96165A
:1059200034BF00204FF000404FEAD13706FB07FCA0
:105930004FEA1C4C0CFB0BF7D21B03FB0CF761EB83
:1059400007010CFB0EF7B0EB074072EB17420CFBA4
:1059500008F734BFA2EB0742B2EB074261EB1741F5
:105960004FEA0C444FEA910706FB07FC4FEA1C4C38
:105970000CFB0BF7B0EBC74072EB573203FB0CF795
:1059800034BFA2EBC742B2EBC74261EB57310CFB0D
:105990000EF7B0EBC70072EB57720CFB08F734BF81
:1059A000A2EBC702B2EBC70261EB5771039F4FEA4C
:1059B000816141EA921104EBCC044FEAD1374FEAFE
:1059C000826206FB07FC42EA90124FEA80604FEACF
:1059D0001C4C0CFB0BF7D21B03FB0CF761EB070114
:1059E0000CFB0EF7B0EB074072EB17420CFB08F70D
:1059F00034BFA2EB0742B2EB074261EB17414FEA1B
:105A00008C554FEA910704EB9C2406FB07FC4FEAF8
:105A10001C4C0CFB0BF7B0EBC74072EB573203FB8F
:105A20000CF734BFA2EBC742B2EBC74261EB573170
:105A30000CFB0EF7B0EBC70072EB57720CFB08F7CC
:105A400034BFA2EBC702B2EBC70261EB577115EB93
:105A50004C254FEA816141EA92114FEA82624FEA96
:105A6000D13742EA901206FB07FC44F100044FEAEA
:105A700080604FEA1C4C0CFB0BF7D21B03FB0CF7AE
:105A800061EB07010CFB0EF7B0EB074072EB17421E
:105A90000CFB08F734BFA2EB0742B2EB074261EB05
:105AA000174115EB1C154FEA813141EA92414FEA4B
:105AB000823242EA90424FEA80304FEA0C7644F15B
:105AC000000448EA03434EEA0B484FF0000EB2EBE5
:105AD000080C71EB030724BF624639464EEB0E0EED
:105AE0004FF0000B0018524149414BEB0B0BB2EB4E
:105AF000080C71EB03077BF1000B24BF62463946AB
:105B00004EEB0E0E4FF0000B0018524149414BEB8B
:105B10000B0BB2EB080C71EB03077BF1000B24BFFE
:105B2000624639464EEB0E0E51EA020718BF46F0A8
:105B3000010616EB0E7655F1000254F1000103D573
:105B4000BDE88901BDE80088BDE88901BDE80048DD
:105B5000B619524141EB0101A3F101037047808066
:105B60007F7E7D7C7B7A79787776767574737271B7
:105B700071706F6E6E6D6C6C6B6A6A69686867666F
:105B800066656464636362616160605F5F5E5E5D01
:105B90005D5C5C5B5B5A5A59595858575756565575
:105BA00055555454535352525251515050504F4FD7
:105BB0004F4E4E4D4D4D4C4C4C4B4B4B4A4A4A4927
:105BC000494948484847474747464646454545446A
:105BD0004444444343434342424242414141002BF7
:105BE0009C4630D477002BD01CB54FEA370703B45E
:105BF0004FF010004FF01001BAF1000F06D0BCF1C9
:105C0000000FDCBF40F0080040F008014FF000003A
:105C10000FBCBDE810400BF1010BBBF1010F08BF39
:105C20005FEA170722BF12F1010211F101014FF0E3
:105C3000004143F1000300F0004043EA00007047D8
:105C4000F9D35708D0E746EA064613F1400F4FEA6A
:105C500016461FDD13F1200FDFBF16430A46002151
:105C600020335B42BED0C3F1200746EA064602FA63
:105C700007F74FEA164646EA0706C3F1200722FA5D
:105C800003F201FA07F721FA03F14FF0000342EAA9
:105C90000702A7E746EA020646EA06464FEA164624
:105CA00046EA0106BCBF46EA0646360C4FF0000342
:105CB0004FF000024FF0000194E72DE9804C9A4626
:105CC000934670B491E8380007C831EA400C48BFE9
:105CD00034EA430C03D5FFF7E6FDFFF780FFF0BC85
:105CE000BDE8008C2DE9804C9A46934670B491E84B
:105CF000380007C810F0804F08BF13F0804F03D161
:105D000000F005F8FFF76BFFF0BCBDE8008C20F059
:105D10007F4780EA030023F07F4C07EB0C03A3F5D9
:105D20007C5300F00040A3F1FE0392F0000F00F05E
:105D3000B38095F0000F00F077802DE901494FEA1C
:105D400011404FEA144621EA004800FB06FC24EA11
:105D5000064708FB06F607FB08F800FB07F718EBF9
:105D600006484CEB164C4FEA124B18EB07484FEA2B
:105D700015464CEB174022EA0B4E0BFB06FC25EABE
:105D800006470EFB06F607FB0EFE0BFB07F71EEBA6
:105D9000064E4CEB164C4FF000061EEB074E4CEB3C
:105DA000174B18EB0B0840F1000018EB0E0B58EBEB
:105DB000000840F100008F1A4FF000013CBFC943BA
:105DC000661B14BFB5EB040C00213CBFC943F61B96
:105DD0004FEA17444EEA8E0E27EA04454FEA1C4765
:105DE00004FB07622CEA074C05FB07F70CFB05F6E2
:105DF00004FB0CFC16EB074642EB174216EB0C4675
:105E000042EB1C421BEB060658EB0202414146EAFC
:105E10009E0601D5BDE80189B619524141EB010149
:105E2000A3F10103BDE801894FEA14454FEA114788
:105E300024EA054621EA074C05FB07F406FB07F7B1
:105E40000CFB06F105FB0CFC11EB074144EB17447E
:105E50004FEA124711EB0C4144EB1C4422EA074C79
:105E600005FB07F206FB07F70CFB06F605FB0CFC2F
:105E700016EB074642EB174216EB0C4642EB1C456D
:105E80006A1854F1000148BF7047B619524141EBFE
:105E90000101A3F10103704795F0000F37D04FEADD
:105EA00011424FEA144721EA024624EA074C02FB5A
:105EB00007F106FB07F70CFB06F402FB0CFC14EBE6
:105EC000074441EB17414FEA154714EB0C4441EBF3
:105ED0001C4125EA074C02FB07F506FB07F70CFB04
:105EE00006F602FB0CFC16EB074645EB174516EBD6
:105EF0000C4645EB1C42121951F1000148BF704796
:105F0000B619524141EB0101A3F1010370474FEA79
:105F100014454FEA114724EA054621EA074C05FBE0
:105F200007F106FB07F70CFB06F24FF0000605FB36
:105F30000CFC12EB074241EB174112EB0C4251EB08
:105F40001C4148BF7047921841EB0101A3F10103C6
:105F50007047000010B50446044A32F81410044A91
:105F600052F8240001F06CFD10BD00003CFA00085E
:105F7000C800002030B587B004460D46142102A8A1
:105F8000FEF767FD00BF1B48C06C40F002001949D6
:105F9000C8640846C06C00F00200019000BF00BF5A
:105FA0007DB9154830F81400029000200390049049
:105FB00002200590114951F8240002A901F04CFC7F
:105FC00016E0012D14D1082002904FF40410039024
:105FD000012004900220059002A9094801F03CFC30
:105FE00000220F21092001F0FBFF092001F0E4FF4E
:105FF00007B030BD001002403EFA0008CC0000207F
:106000000004004800BFFEE770B503460C460021BF
:106010000BE04800401C34F810004E0034F81660C5
:1060200040EA06401E683060491CB1EB520FF0D3C5
:1060300002F0010020B11D68480034F810002880EB
:106040001868006870BDF0B504460B46002113E0E7
:1060500013F8210007068800401C185C47EA004737
:106060008800801C185C47EA00208F00FF1CDF5D61
:10607000384327683860491CB1EB920FE8D302F02F
:10608000030030B302F00300012803D113F821000C
:106090002768387002F00300022808D18800401CED
:1060A000185C13F8217040EA07252668358002F055
:1060B000030003280DD18800401C185C13F82170E0
:1060C00040EA0725266835808800801C185C276810
:1060D000387020680068F0BD38B500BF1848806C83
:1060E00040F48050164988640846806C00F4805063
:1060F000009000BF00BF13481349086000200871DA
:106100000021114841714161816103200E490862FB
:10611000084601F001F988B10CA240211348FEF7AE
:1061200061F91248FEF70EFC84B24FF0FF332246AD
:106130000E490F4804F06CFB00BFFEE738BD0000BD
:106140000010024000300240580B00200D0A43525C
:106150004320696E697469616C697A6174696F6EF4
:10616000206661696C65640D0A000000CB080020A0
:10617000040600202DE9F84F82460D46042D02D278
:10618000002000F02DB80AF104062F1FFFF7A4FF2E
:10619000BC0807F0030834B1224631460F4801F02D
:1061A00083F8814601E04FF0FF39B8F1000F12D0BB
:1061B0000020009000BF05E000EB8401715C0DF849
:1061C0000010401C4045F7D301226946034801F006
:1061D00039F8814600BF4846D3E70000580B00203D
:1061E00018BCBDE8E08F000070B5A6B07D2001F0BE
:1061F00059F905F05FFC22A823A924AB25AACDE913
:1062000000101CA12048FEF789FA20492598484330
:1062100040F253722499514300EB4110239901EB52
:106220004102C2EBC11100EBC100229945180024C4
:1062300017480068401C30B1154800682C1A002C23
:1062400001DA14480444124813A28021036802A80A
:10625000FEF7C8F802A8FEF775FB86B24FF0FF33D1
:10626000324602A90E4804F0D3FA094805602046D8
:1062700026B070BD253032643A253032643A25307C
:1062800032643A25303264003004002080EE36005B
:1062900094010020005C26052564200D0A00000002
:1062A000D40200201CB524220221552004F042FD16
:1062B0000A2001F0F7F80EA000680190032201A95E
:1062C000552004F04FFD002000900A2001F0EAF86C
:1062D00002236A461946552004F058FD03236A46F6
:1062E0000421552004F052FD0A2001F0DBF81CBD0A
:1062F00004038000704710B5082001F09FFA10BD1C
:1063000010B5082001F09AFA10BD10B5202001F058
:1063100095FA10BD00BFFEE70146087800064A78EE
:1063200040EA02408A7840EA0220CA781043704767
:106330001B49087F012801D0032816D11949096893
:1063400021F40071174A116000BF1146096841F439
:10635000006111601146096821F40061116000BFFD
:106360001146096841F400711160022801D0032828
:1063700011D100BF0B49096841F48051094A1160ED
:106380001146096821F48051116000BF1146096867
:1063900041F4806111600021014A117770470000CB
:1063A000C8010020002002401249096A01F480015E
:1063B00091B100F0010129B10E49496941F0040190
:1063C0000C4A516100F0020169B10A49496941F47E
:1063D0000041084A516106E00649496948F2040251
:1063E0001143044A51610349496941F48031014A2A
:1063F0005161704700200240174A126A02F480027D
:1064000032B9154A526922F40062134B5A610FE007
:1064100001F0010232B1104A526922F400620E4BBF
:106420005A6105E00C4A526942F400620A4B5A6113
:10643000094A526922F47E72C3B242EAC302064B91
:106440005A611A46526942F002025A611A4652696A
:1064500042F480325A6170470020024010B508496A
:10646000496941F00101064C6161026000BF00BF53
:1064700000BFBFF36F8F00BF00BF00BF436010BD00
:1064800000200240F0B50246802314460D460C4E13
:10649000766946F480260A4F7E6100BFEFF31086CE
:1064A000304672B600BF2E682660241D2D1D5E1E6C
:1064B000F3B2002BF7D100BF80F3108800BFF0BD0E
:1064C0000020024070B5054601F0CAFA064608E011
:1064D000681C30B101F0C4FA801BA84201D303202C
:1064E00070BD1948006900F480300028F0D11648CA
:1064F0000069164900EA0104CCB115484068204300
:106500001349486000BF04F0704030B10E48806904
:1065100004F0704108430C49886124F0704018B1C0
:1065200024F070400849086100BF0120D8E7064800
:10653000006900F0010020B100BF0120024908619C
:1065400000BF0020CCE7000000200240FAC3020098
:10655000C80100202DE9F04F9FB004460025DFF868
:10656000C4A3F1481B90042C02D3B4F5003F14D906
:106570002346EEA24021F748FDF734FFF548FEF729
:10658000E1F986B24FF0FF333246F249F24804F0A7
:106590003FF901201FB000F06DBC201FEF490860DB
:1065A00041F28832EEA1EFA005F050FC88B9EFA2CD
:1065B0004021E848FDF716FFE648FEF7C3F986B22A
:1065C0004FF0FF333246E349E34804F021F901205C
:1065D000E0E741F28832E2A1EEA005F037FC88B98D
:1065E000F3A24021DB48FDF7FDFEDA48FEF7AAF9E9
:1065F00086B24FF0FF333246D649D74804F008F947
:106600000120C7E741F28832D5A1F3A005F01EFCB6
:1066100088B9FAA24021CF48FDF7E4FECD48FEF745
:1066200091F986B24FF0FF333246CA49CA4804F0A6
:10663000EFF80120AEE747F23052C9A1F9A005F00A
:1066400005FC88B9FBA24021C248FDF7CBFEC1483A
:10665000FEF778F986B24FF0FF333246BD49BE48A7
:1066600004F0D6F8012095E71B98FEF76BF9064673
:106670003346F9A2642102A8FDF7B4FE41F2883244
:10668000FAA102A805F0E2FB88B9FAA24021B148BC
:10669000FDF7A8FEAF48FEF755F986B24FF0FF337D
:1066A0003246AC49AC4804F0B3F8012072E741F23D
:1066B0008832ABA11B9805F0C9FB88B9F3A2402131
:1066C000A448FDF78FFEA348FEF73CF986B24FF0D1
:1066D000FF3332469F49A04804F09AF8012059E759
:1066E000F04AF1A1F5A005F0B1FB88B9F8A240216C
:1066F0009848FDF777FE9748FEF724F986B24FF0E9
:10670000FF3332469349944804F082F8012041E770
:1067100000F0C8FF88B1F3A240218E48FDF762FE69
:106720008C48FEF70FF986B24FF0FF3332468949A5
:10673000894804F06DF801202CE704F6FF70000B87
:106740000190784800F016FDEC490860EC4901988A
:106750000860744800F08EFCEA4908600020EA49AD
:106760000860E84800684860E44800688860E448D9
:106770000068C860E549E44800F0A8FE18B9E3489D
:106780000068401C98B1E2A240217248FDF72AFE41
:106790007048FEF7D7F886B24FF0FF3332466D49A6
:1067A0006D4804F035F800F013FF0120F2E6E1A295
:1067B00040216848FDF716FE6648FEF7C3F886B22A
:1067C0004FF0FF3332466349634804F021F8E3A0F9
:1067D00006F0F8F9E6A240215E48FDF703FE5D48A9
:1067E000FEF7B0F886B24FF0FF33324659495A48A7
:1067F00004F00EF8AB499DA005F052FEF8B9E3A2F3
:1068000040215448FDF7EEFD5248FEF79BF886B252
:106810004FF0FF3332464F494F4803F0F9FF00F085
:10682000D7FEE2480078401CC0B2E0490870032857
:1068300003DA08F027FE0120ACE60120AAE6F7E122
:10684000601B082801D3082000E0601B8346FF225C
:1068500008211CA8FEF7D3F81FFA8BF24FF47A73C5
:106860001CA93D4803F048FF00B32B46D0A24021AD
:106870003848FDF7B7FD3748FEF764F886B24FF0A9
:10688000FF3332463349344803F0C2FF00F0A0FE24
:10689000C6480078401CC0B2C4490870032803DA17
:1068A00008F0F0FD012075E6012073E60027B846E8
:1068B00000260DE01CA810F806900020F2001E90A3
:1068C00048461E99FDF765FD074341EA0808761C16
:1068D0005E45EFD33A464346504600F011FBF0B117
:1068E0005346BDA240211B48FDF77CFD1948FEF729
:1068F00029F886B24FF0FF3332461649164803F0A6
:1069000087FF00F065FEA9480078401CC0B2A74987
:106910000870032804DA08F0B5FD01203AE66FE1BB
:106920006CE1000000000808B8FC00080D0A496E80
:1069300076616C6964206669726D77617265207337
:10694000697A653A20256C752062797465730D0A41
:1069500000000000CB08002004060020A401002055
:106960004F4B000041540D0A000000000D0A466123
:10697000696C656420746F20636F6D6D756E6963FB
:106980006174652077697468206D6F64656D0D0AA8
:106990000000000041542B51485454504346473D99
:1069A00022636F6E746578746964222C310D0A005D
:1069B0000D0A4661696C656420746F20636F6E66B2
:1069C0006967757265204854545020636F6E746512
:1069D00078740D0A0000000041542B514854545063
:1069E0004346473D22726573706F6E7365686561DB
:1069F000646572222C310D0A000000000D0A466108
:106A0000696C656420746F20656E61626C652072CC
:106A10006573706F6E7365206865616465720D0AD9
:106A20000000000041542B51494143543D310D0AAF
:106A3000000000000D0A4661696C656420746F20D7
:106A400061637469766174652050445020636F6E91
:106A5000746578740D0A000041542B514854545009
:106A600055524C3D25642C38300D0A00434F4E4E94
:106A7000454354000D0A4661696C656420746F20BB
:106A80007365742055524C0D0A0000000D0A4661D2
:106A9000696C656420746F2073656E642055524C78
:106AA0000D0A0000803801002B51485454504745CE
:106AB000543A20302C3230300000000041542B5129
:106AC000485454504745543D38300D0A00000000EA
:106AD0000D0A4854545020474554206661696C653E
:106AE000640D0A000D0A466C61736820756E6C6F48
:106AF000636B206661696C65640D0A00A801002063
:106B0000AC010020B0010020480B0020B40100209F
:106B10000D0A466C61736820657261736520666159
:106B2000696C656420666F722073746F726167654B
:106B30000D0A00000D0A466C61736820657261736E
:106B4000656420666F72206669726D776172652078
:106B500073746F726167650D0A00000041542B5118
:106B600048545450524541443D38300D0A0000000D
:106B70000D0A53656E742041542B514854545052A1
:106B80004541443D38300D0A000000000D0A4661C1
:106B9000696C656420746F20726563656976652031
:106BA000434F4E4E4543540D0A000000B8010020EB
:106BB0000D0A5541525420726563656976652074EB
:106BC000696D656F757420617420256C752062791C
:106BD0007465730D0A0000000D0A466C617368202D
:106BE0007772697465206661696C656420617420E0
:106BF0003078253038580D0A000000000120C9E423
:106C00005D440AF1080AC5F3090080B92B4661A268
:106C100040216648FDF7E6FB6448FDF793FE86B227
:106C20004FF0FF3332466149614803F0F1FD00BF88
:106C3000A542FFF405AE41F28831AFF2DC2005F049
:106C40002FFCF8B95BA240215848FDF7CBFB574811
:106C5000FDF778FE86B24FF0FF3332465349544871
:106C600003F0D6FD00F0B4FC5A480078401CC0B2D6
:106C700058490870032803DA08F004FC012089E46D
:106C8000012087E400F0A4FC2B4653A24021474892
:106C9000FDF7A8FB4548FDF755FE86B24FF0FF33E0
:106CA00032464249424803F0B3FD54480090214621
:106CB000009805F0E3FFE8B951A240213B48FDF7F9
:106CC00091FB3A48FDF73EFE86B24FF0FF33324665
:106CD0003649374803F09CFD3E480078401CC0B25E
:106CE0003C490870032803DA08F0CCFB012051E48A
:106CF00001204FE408F0BEFDA8B308F08FFC4BA2C2
:106D000040212A48FDF76EFB2848FDF71BFE86B29E
:106D10004FF0FF3332462549254803F079FD6420C2
:106D200000F0C0FB00202B49087000BF00BF00BF6F
:106D300000BF00BFBFF34F8F00BF00BF00BF45487B
:106D4000006800F4E06044490843001D41490860C0
:106D500000BF00BF00BFBFF34F8F00BF00BF00BF29
:106D600000BF00BFFDE7FFE73CA240210F48FDF751
:106D700039FB0E48FDF7E6FD86B24FF0FF33324691
:106D80000A490B4803F044FD00201249087000BF77
:106D900000E400000D0A526563656976656420258C
:106DA0006C752062797465730D0A0000CB080020B1
:106DB000040600200D0A4661696C656420746F202A
:106DC000726563656976652066696E616C204F4BFC
:106DD0000D0A0000B80100200D0A4669726D776146
:106DE000726520646F776E6C6F616465643A20250C
:106DF0006C752062797465730D0A00000000080844
:106E00000D0A464F544120757064617465206661B7
:106E1000696C65642064756520746F20435243205B
:106E20006D69736D617463680D0A00000D0A464F49
:106E300054412075706461746520636F6D706C657A
:106E40007465642C20726573657474696E672E2E88
:106E50002E0D0A000CED00E00000FA050D0A557039
:106E60006461746520666C6167206E6F7420736561
:106E7000740D0A0030BCBDE8C08F000070B5054637
:106E800000BF4FF400401849086100BF284600F0D9
:106E900071F916490860284600F06CF91349096831
:106EA000401A401C12490860284600F0E3F81149D6
:106EB00008600020104908600E48006848600B48D0
:106EC000006888600A480068C8600C490A4800F0F9
:106ED000FDFA04461CB909480068401C08B10120AD
:106EE00070BD0020FCE7000000200240A801002047
:106EF000AC010020B0010020480B0020B4010020AC
:106F00002DE9F041064614461D4622462B463146E1
:106F1000002000F067FB074617B13846BDE8F08156
:106F2000D6E9000160406940084301D00120F5E73F
:106F30000020F3E708B500BF4B48C06C40F00100EB
:106F40004949C8640846C06C00F00100009000BFC9
:106F500000BF012045494860002088600220C860C9
:106F6000102008604FF0904000F076FC01221021C4
:106F70004FF0904000F06EFD00BF3B48C06C40F009
:106F800001003949C8640846C06C00F00100009057
:106F900000BF00BF01203549486000208860022002
:106FA000C860800308604FF0904000F055FC00225C
:106FB0004FF400414FF0904000F04CFD00BF2A48D4
:106FC000C06C40F001002849C8640846C06C00F05D
:106FD0000100009000BF00BF01202449486000204C
:106FE00088600220C860400208604FF0904000F0C6
:106FF00033FC00224FF480614FF0904000F02AFDF6
:1070000001201A494860002088600220C860802062
:1070100008604FF0904000F01FFC002280214FF0EC
:10702000904000F017FD00BF0F48C06C40F0020018
:107030000D49C8640846C06C00F00200009000BF13
:1070400000BF012009494860002088600220C86014
:1070500010200860064800F0FFFB012210210448C0
:1070600000F0F8FC08BD000000100240C002002043
:107070000004004801461A48006800F48070B8B95E
:107080001848008880B24FF6FF72904202D14FF448
:10709000801003E013480088000480094FF000626C
:1070A00002EB5000884201D9012070470220FCE722
:1070B0000C48008880B24FF6FF72904202D14FF424
:1070C000801003E007480088000480094FF0006248
:1070D00002EB5000884201D90220E6E70120E4E7F4
:1070E00000000140E075FF1F1FB51E481E490860E3
:1070F0000020486000211C4881604FF6FF71C1608C
:107100000021016102F027FD08B1FFF703F9012119
:10711000154802F0F1FB00200090012001900C20A6
:10712000029000200390002269460F4802F064FCA0
:1071300008B1FFF7EFF800210B4802F06DFD08B130
:10714000FFF7E8F800BF094800680228FBD10021DA
:10715000054802F03FFE044802F0BDFC0448006808
:1071600004B010BD0044014020020020DC000020DB
:10717000D800002001461648008880B24FF6FF7202
:10718000904202D14FF4801003E0114800880004BF
:1071900080094FF0006202EB5000884203D9A1F150
:1071A0000060000B70470A48008880B24FF6FF72FB
:1071B000904202D14FF4801003E00548008800049B
:1071C00080094FF0006202EB5000081A000BE9E75B
:1071D000E075FF1F70B503460C4600201F2104F028
:1071E00001050DB9012022E000BF0D1EA1F1010132
:1071F00006D001F01F060125B5402540002DF4D032
:107200008AB1082A0BD0102A05D0182A0CD10729D8
:1072100000D301200AE0082900D3012006E010294C
:1072200000D3012002E001E0012000BF00BF40B90F
:107230001D686C611D68AD6825F0180515431E6852
:10724000B56070BD2DE9F04104460E4617464FF07B
:10725000000802206077206A012810D0022815D08B
:1072600003281AD1002504E056F82500216808609B
:107270006D1CBD42F8D32068D0F800800EE03A467D
:1072800031462046FEF7DFFE804607E03A463146AB
:107290002046FEF7B9FE804600E000BF00BF012097
:1072A00060774046BDE8F0812DE9F04104460E4686
:1072B00017464FF00008022060772068806840F091
:1072C000010021688860206A012810D0022815D0AA
:1072D00003281AD1002504E056F82500216808602B
:1072E0006D1CBD42F8D32068D0F800800EE03A460D
:1072F00031462046FEF7A7FE804607E03A46314673
:107300002046FEF781FE804600E000BF00BF01205E
:1073100060774046BDE8F08110B504460CB9012005
:1073200010BD607F20B900202077204600F036F89D
:1073300002206077207948B91748216848612068A1
:10734000806820F018002168886007E02046D4E9B2
:107350000212FFF73FFF08B10120E1E7607920B991
:107360004FF0FF302168086102E021682069086160
:107370002068806820F060006169084321688860A7
:107380002068806820F08000A16908432168886037
:10739000012060770020C3E7B71DC1047047014694
:1073A000002291F82500022808D00420C86300BFFD
:1073B000002081F8240000BF0120704708680068A1
:1073C00020F00E000B681860886C006820F4807054
:1073D0008B6C18600868006820F001000B6818606A
:1073E00091F8440000F01C03012098400B6C586099
:1073F000D1E913305860486D40B1486D006820F401
:1074000080704B6D1860D1E916305860012081F80A
:10741000250000BF002081F8240000BF1046CCE703
:1074200070B50446002594F82500022803D00420F6
:10743000E063012534E02068006820F00E00216838
:1074400008602068006820F0010021680860A06CD6
:10745000006820F48070A16C086094F8440000F08B
:107460001C0101208840216C4860D4E91310486059
:10747000606D40B1606D006820F48070616D0860DF
:10748000D4E916104860012084F8250000BF0020D0
:1074900084F8240000BFA06B10B12046A16B884780
:1074A000284670BD70B5044600F0DAFA0646254657
:1074B000681C10B104480078054400BF00F0D0FA01
:1074C000801BA842FAD370BDC40100202DE9F04111
:1074D00004460F4600BF3C480078012802D1022034
:1074E000BDE8F08101203849087000BF4CF25030EF
:1074F000FEF7E8FF0646002E5FD133494860334867
:10750000006800F4007090B13048006800F48060BA
:1075100048B12E48006820F480602C4908600320A0
:107520002949087715E001202749087711E0274805
:10753000006800F4806048B12448006820F480604E
:107540002249086002202049087702E000201E49F5
:107550000877206801280FD16068FEF725FF4CF2FC
:107560005030FEF7AFFF06461848406948F2040164
:107570008843164948611EE04FF0FF303860A56827
:1075800013E028466168FEF737FF4CF25030FEF7F3
:1075900099FF06460D48406940F2FA3188430B498D
:1075A00048610EB13D6005E06D1CD4E9020108445C
:1075B000A842E6D800BFFEF7BBFE00BF002002498C
:1075C000087000BF30468BE7C80100200020024051
:1075D0000348406940F0004001494861002070477D
:1075E000002002402DE9F0470446884615461E4615
:1075F0004FF0000900BF29480078012802D102207D
:10760000BDE8F08701202549087000BF4CF25030DA
:10761000FEF758FF0746002F38D120494860204820
:10762000006800F4806048B11D48006820F4806064
:107630001B49086002201949087702E00020174919
:1076400008773CB92A4633464046FEF707FF4FF01D
:1076500001090BE0012C01D0022C07D1294640463C
:10766000FEF710FF022C01D14FF480294CF250306C
:10767000FEF728FF0746B9F1000F05D0084840691A
:1076800020EA090006494861FEF752FE00BF0020CB
:107690000249087000BF3846B2E70000C801002068
:1076A0000020024000200849496901F0004151B121
:1076B0000649054A9160064991601146496901F001
:1076C000004101B1012070470020024023016745BD
:1076D000AB89EFCDF0B50B46002189E001258D4047
:1076E00005EA0302002A7DD0444D8E0855F8264055
:1076F0008D072E0F0F25B5402C40B0F1904F01D1D2
:10770000002523E03E4DA84201D101251EE03D4D5C
:10771000A84201D1022519E03B4DA84201D1032521
:1077200014E03A4DA84201D104250FE0384DA8429B
:1077300001D105250AE0374DA84201D1062505E013
:10774000354DA84201D1072500E008258E07360FE8
:10775000B540A54223D1314D2D6895432F4E35605C
:10776000351D2D689543361D35602C4D0C352D6823
:1077700095432A4E0C363560351F2D689543361FCC
:1077800035608D072E0F0F2505FA06F41B4D8E0868
:1077900055F82650A543194E8F0846F8275005681E
:1077A0004F000326BE4035430560CE0800F120059A
:1077B00055F826504E07F70E0F26BE40B543CF08AA
:1077C00000F1200646F8275085684F000326BE408A
:1077D000B5438560466801258D40AE434660C56867
:1077E0004F0000E003E00326BE40B543C560491CDE
:1077F00023FA01F5002D7FF471AFF0BD08000140C0
:107800000004004800080048000C00480010004830
:107810000014004800180048001C00480004014003
:10782000082802D10121044A1160202802D1012137
:10783000014A1160704700000801002010B504469D
:1078400004480068204020B1024804602046FFF749
:10785000E7FF10BD1404014078B502460B46002135
:10786000D4E001268E401D6805EA0604002C73D082
:107870001D7905F00305012D04D01D7905F00305E0
:10788000022D13D190684E000325B540A8434E0049
:10789000DD68B54028439060506801258D40A843BD
:1078A0001D79C5F300158D40284350601D7905F002
:1078B0000305032D09D0D0684E000325B540A84329
:1078C0004E009D68B5402843D0601D7905F0030542
:1078D000022D13D1CE0802F1200555F826004D07E0
:1078E000EE0E0F25B540A8434E07F60E1D69B540B4
:1078F0002843CE0802F1200545F8260010684E0006
:107900000325B540A8431D7905F003054E00B54099
:10791000284310605D6805F44035002D75D000BF28
:107920003D4D2D6E45F001053B4E356635462D6EBD
:1079300005F00105009500BF00BF4FEAB6358E087F
:1079400055F826008D072E0F0F25B540A843B2F13C
:10795000904F02D1002524E057E0304DAA4201D1DA
:1079600001251EE02E4DAA4201D1022519E02D4D20
:10797000AA4201D1032514E02B4DAA4201D10425CE
:107980000FE02A4DAA4201D105250AE0284DAA425E
:1079900001D1062505E0274DAA4201D1072500E0C7
:1079A00008258E07360FB5402843234D8E0845F82D
:1079B0002600224D2868A0435D6805F4801505B1B6
:1079C00020431E4D28602D1D2868A0435D6805F4E6
:1079D000001505B12043194D2D1D2860174D2D1F91
:1079E0002868A0435D6805F4003505B12043134DB8
:1079F0002D1F28602D1F2868A0435D6805F4803581
:107A000005B120430D4D083D2860491C1D68CD403F
:107A1000002D7FF426AF78BD00100240000400481E
:107A200000080048000C00480010004800140048FE
:107A300000180048001C00480800014008040140EC
:107A400010B5426921EA020302EA010443EA044351
:107A5000836110BD0AB1816100E08162704700005E
:107A60000148006870470000BC01002010B50446C2
:107A70000CB9012010BD94F8410028B9002084F809
:107A80004000204600F0DCF9242084F84100206802
:107A9000006820F0010021680860606820F07060D4
:107AA000216808612068806820F4004021688860AF
:107AB000E068012805D1A06840F400402168886092
:107AC00004E0A06840F4044021688860E06802286F
:107AD00006D12068406840F400602168486005E0F5
:107AE0002068406820F40060216848602068406891
:107AF00013490843216848602068C06820F40040AA
:107B00002168C860D4E904010843A16940EA012062
:107B10002168C860D4E9070108432168086020682B
:107B2000006840F0010021680860002060642020A7
:107B300084F841000020206384F8420000BF99E7E8
:107B4000008000022DE9F8430446894616461F4688
:107B5000DDF8208094F84100202873D100BF94F80C
:107B60004000012802D10220BDE8F883012084F8FA
:107B7000400000BFFFF774FF054619230122D1031F
:107B80002046009502F0D1FF08B10120ECE7222049
:107B900084F84100102084F842000020606466628E
:107BA00067856063608DFF280CD9012020853C48E3
:107BB000009094F828204FF080734946204602F048
:107BC00098FF0BE0608D20853548009094F82820C0
:107BD0004FF000734946204602F08BFF3FE02A46F3
:107BE0004146204602F0E2FF08B10120BCE72068D0
:107BF000406A616A0870606A401C6062208D401EA5
:107C00002085608D401E6085608D40B3208D30BB27
:107C10004346002280212046009502F086FF08B1ED
:107C20000120A1E7608DFF280DD9FF2020850020CD
:107C3000009094F828204FF080734946204602F0C7
:107C400058FF0CE02AE0608D20850020009094F819
:107C500028204FF000734946204602F04AFF608D0D
:107C60000028BCD12A464146204603F001F808B15D
:107C7000012079E720202168C8612068406809490F
:107C8000084021684860202084F84100002084F8E2
:107C9000420000BF84F8400000BF65E7022063E7B0
:107CA0000024008000E800FE2DE9F84F04468A46D3
:107CB00017469846DDF8289094F84100202878D19E
:107CC00000BF94F84000012802D1022000F0B4B8AF
:107CD000012084F8400000BFFFF7C2FE05461923CB
:107CE0000122D1032046009502F01FFF08B10120B8
:107CF000ECE7212084F84100102084F842000020A5
:107D000060646762A4F82A806063608DFF2804D9EC
:107D1000FF2020854FF0807603E0608D20854FF0B6
:107D20000076208DC0B1606A007821688862606A40
:107D3000401C6062608D401E6085208D401E208545
:107D40003B48009094F82800401CC2B2334651468C
:107D5000204602F0CEFE08E03548009094F8282036
:107D600033465146204602F0C4FE3FE02A464946CB
:107D7000204602F0ADFF08B10120A7E7606A007855
:107D800021688862606A401C6062608D401E608568
:107D9000208D401E2085608D40B3208D30BB4B462A
:107DA000002280212046009502F0BFFE10B1012084
:107DB0008CE73AE0608DFF280CD9FF202085002059
:107DC000009094F828204FF080735146204602F02E
:107DD00090FE0BE0608D20850020009094F8282014
:107DE0004FF000735146204602F083FE608D00285C
:107DF000BCD12A464946204602F03AFF08B101208C
:107E000064E720202168C86120684068094908406B
:107E100021684860202084F84100002084F8420056
:107E200000BF84F8400000BF50E702204EE700008A
:107E30000020008000E800FE18BCBDE8E08F0000D4
:107E400010B5ACB00446402001908001189001A804
:107E500000F094F900BF2048C06C40F002001E49B9
:107E6000C8640846C06C00F00200009000BF00BF6C
:107E700000BF0846C06C40F00200C8640846C06CF1
:107E800000F00200009000BF00BF00BF0846806DF8
:107E900040F4001088650846806D00F400100090E2
:107EA00000BF00BF8815279012202890012029903C
:107EB00003202A9004202B9027A90848FFF7CCFC28
:107EC0004FF40070279004202B9027A90348FFF758
:107ED000C3FC2CB010BD000000100240000400489C
:107EE000034800680349097808440149086070475D
:107EF000BC010020C401002010B50024032000F0C4
:107F0000B1F80F2000F008F808B1012401E000F0FA
:107F10002FF8204610BD000070B50446002511481A
:107F20000078D8B10F4800784FF47A71B1FBF0F0C7
:107F30000D490968B1FBF0F6304601F0B6FC58B9BE
:107F4000102C07D200222146501E00F049F80748A5
:107F5000046004E0012502E0012500E00125284637
:107F600070BD0000C4010020C4000020C00100203A
:107F70007047000010B501460846002817DB00F0E6
:107F80001F0301229A400B4B440943F8242000BFF1
:107F900000BF00BFBFF34F8F00BF00BF00BF00BFD7
:107FA00000BF00BFBFF36F8F00BF00BF00BF00BFA7
:107FB00010BD000080E100E00146084600280DDB0E
:107FC00000BF00BF00F01F0301229A4043099B003D
:107FD00003F1E023C3F8002100BF00BF00BF7047DA
:107FE0002DE9F05F80460D461646002704F0FEFEA0
:107FF000074639462A46334601F00700C0F1070A12
:10800000BAF1040F02D94FF0040A01E0C0F1070AE7
:10801000D14600F1040ABAF1070F02D24FF0000A6C
:1080200001E0A0F1030AD4464FF0010A0AFA09FA66
:10803000AAF1010A0AEA020A0AFA0CFA4FF0010B45
:108040000BFA0CFBABF1010B0BEA030B4AEA0B0436
:108050002146404604F0D2FE00F000B830BCBDE836
:10806000C09F000000BF00F00702064B19684FF6E2
:10807000FF031940044B0B4343EA0221014B1960F3
:1080800000BF70470CED00E00000FA0511480068E1
:1080900020F480400F4A10600F480068322250439D
:1080A0000E4AB0FBF2F0411C00E0491E094840694D
:1080B00000F40070B0F5007F01D10029F5D105482A
:1080C000406900F40070B0F5007F01D103207047D3
:1080D0000020FCE700700040C400002040420F0078
:1080E0000348006840F48040014908607047000080
:1080F000007000400B48006800F4C060B0F5806F6D
:1081000002D14FF48060704706488030006800F468
:108110008070B0F5807F02D14FF40070F3E700204B
:10812000F1E700000070004070B504460D4654B9F8
:108130001048406900F40070B0F5007F0AD1FFF7E5
:10814000A5FF38B170BD0B484069C0F3402008B9A5
:10815000FFF7C6FF0848006820F0040006490860E1
:10816000012D01D130BF02E040BF20BF20BF00BFC2
:10817000E8E700000070004010ED00E02DE9F84352
:1081800004460025A846208800F40060B0F5006F82
:1081900032D1E06E402809D003DC70B120281BD119
:1081A00011E0602816D0802816D114E0FE48C0687F
:1081B00040F48030FC49C86010E00021201D03F02D
:1081C00059FA05460AE0002104F1200003F016FBED
:1081D000054603E000BF01E0012500BF00BF55B91F
:1081E000F1489C30006820F0E000E16E0843EE4961
:1081F000C1F89C0000E0A846208800F48050B0F54B
:10820000805F36D1206FB0F5007F0CD004DC88B1E0
:10821000B0F5807F1DD113E0B0F5407F17D0B0F5E9
:10822000806F16D114E0E048C06840F48030DE4929
:10823000C86010E00021201D03F01CFA05460AE08A
:10824000002104F1200003F0D9FA054603E000BF45
:1082500001E0012500BF00BF55B9D3489C3000683C
:1082600020F4E060216F0843CF49C1F89C0000E092
:10827000A846206800F40030B0F5003F77D14FF0F9
:108280000009C948806D012121EA107078B100BF52
:10829000C548806D40F08050C34988650846806DB0
:1082A00000F08050009000BF00BF4FF00109BF48B0
:1082B000006840F48070BD490860FFF7D1FB0746B5
:1082C00006E0FFF7CDFBC01B022801D9032505E01E
:1082D000B648006800F480700028F2D000BF85BB6B
:1082E000B1489030006800F44076D6B1D4F89400DC
:1082F000B04216D0AC489030006820F44076AA48CE
:10830000D0F8900040F48030A749C1F890000846AA
:10831000D0F8900020F48030C1F890000846C0F8F2
:10832000906006F00100A8B1FFF79AFB074609E04C
:10833000FFF796FBC01B41F28831884202D9032522
:1083400007E017E098489030006800F0020000282D
:10835000EED000BF65B994489030006820F44070BA
:10836000D4F8941008439049C1F8900003E00CE061
:10837000A84600E0A846B9F1010F05D18A48806DF2
:1083800020F080508849886500BF207800F0010007
:1083900048B185488830006820F00300E16B08434D
:1083A0008149C1F88800207800F00200022809D134
:1083B0007D488830006820F00C00216C08437A4921
:1083C000C1F88800207800F00400042809D176481C
:1083D0008830006820F03000616C08437249C1F8B1
:1083E0008800207800F00800082809D16E488830FD
:1083F000006820F0C000A16C08436B49C1F88800F8
:10840000207800F01000102809D1674888300068F3
:1084100020F44070E16C08436349C1F8880020787B
:1084200000F02000202809D15F488830006820F43F
:108430004060216D08435C49C1F88800208800F441
:108440000070B0F5007F09D157488830006820F4EB
:108450004020616E08435449C1F88800208800F428
:108460008060B0F5806F09D14F488830006820F4F3
:108470004010A16E08434C49C1F88800207800F0F4
:108480004000402809D148488830006820F4405016
:10849000616D08434449C1F88800207800F08000ED
:1084A000802809D140488830006820F44040A16D00
:1084B00008433D49C1F88800208800F48070B0F579
:1084C000807F09D138488830006820F44030E16D61
:1084D00008433549C1F88800206800F48010B0F5E1
:1084E000801F09D130489C30006820F00300216EC5
:1084F00008432D49C1F89C00208800F40050B0F5D5
:10850000005F1FD128488830006820F04060616F0C
:108510000843254988310860606FB0F1006F06D1CB
:108520002148C06840F480101F49C8600AE0606FAD
:10853000B0F1806F06D10121201D03F09BF80546A4
:1085400005B1A846206800F40020B0F5002F45D101
:1085500000BFA06FB0F5804F08D113489C30006871
:1085600040F480401049C1F89C0011E00E489C3056
:10857000006820F480400C49C1F89C000A4888300B
:10858000006820F04060A16F08430749C1F88800E7
:1085900000BFA06FB0F1006F0AD10348C06840F47B
:1085A00080100149C86019E00010024000700040CE
:1085B000A06FB0F5804F06D16348C06840F48030AA
:1085C0006149C8600AE0A06FB0F1806F06D1012157
:1085D000201D03F04FF8054605B1A846206800F4B9
:1085E0008020B0F5802F1FD157488830006820F0D8
:1085F0004060E16F0843544988310860E06FB0F192
:10860000006F06D15048C06840F480104E49C860E1
:108610000AE0E06FB0F1806F06D10121201D03F068
:1086200029F8054605B1A846208800F48040B0F539
:10863000804F16D144488830006820F04050D4F86C
:1086400080100843404988310860D4F88000B0F1B8
:10865000805F06D10221201D03F00CF8054605B10C
:10866000A846206800F48030B0F5803F0AD1364833
:108670009C30006820F00400D4F88410084332498C
:10868000C1F89C00206800F40010B0F5001F0AD16A
:108690002D489C30006820F01800D4F8881008435A
:1086A0002949C1F89C00206800F48000B0F5800FD3
:1086B0002BD12548006820F0805023490860FFF73F
:1086C000CFF9074606E0FFF7CBF9C01B022801D916
:1086D000032505E01C48006800F000500028F2D196
:1086E00000BF85B918489C30006820F44030D4F8A9
:1086F0008C1008431449C1F89C00022104F12000A9
:1087000003F07CF8054605B1A846206800F08070AB
:10871000B0F1807F15D10C489C30006820F44010E7
:10872000D4F89010084308499C310860D4F89000B0
:10873000B0F5001F05D10448C06840F4801002491C
:10874000C8604046BDE8F883001002402DE9F041C2
:1087500004460D46002714B90120BDE8F0817B488E
:10876000006800F00F00A8420ED27848006820F0A0
:108770000F002843754908600846006800F00F00A4
:10878000A84201D00120E8E7207800F0020002288A
:108790000ED16F49A068896801F0F001884207D9BD
:1087A0006B48806820F0F000A16808436849886041
:1087B000207800F00100002867D0606803281AD1F3
:1087C0006348006800F0007008B90120C5E703F0B5
:1087D000D9F8604988423BD95D48806800F0F000D4
:1087E000B0BB5B48806820F0F00040F08000584942
:1087F000886080272CE06068022806D15448006811
:1088000000F4003088B90120A7E7606830B950480B
:10881000006800F0020040B901209EE74C48006863
:1088200000F4806008B9012097E700F081F9494918
:1088300088420DD94648806800F0F00040B94448AD
:10884000806820F0F00040F0800041498860802777
:108850003F48806820F00300616808433C49886015
:10886000FFF7FEF8064608E0FFF7FAF8801B41F232
:108870008831884201D903206FE73548806800F0CD
:108880000C006168B0EB810FEED1802F05D130482C
:10889000806820F0F0002E498860207800F0020007
:1088A00002280ED12A49A068896801F0F0018842A7
:1088B00007D22748806820F0F000A16808432449C7
:1088C00088602248006800F00F00A8420ED91F48B7
:1088D000006820F00F0028431C4908600846006823
:1088E00000F00F00A84201D0012036E7207800F008
:1088F0000400042807D11648806820F4E060E1688D
:10890000084313498860207800F00800082808D13F
:108910000F48806820F46050216940EAC1000C498A
:10892000886000F005F90A498968C1F303110A4A11
:10893000515C01F01F01C840084908600848006800
:10894000FFF7EAFA8046404607E7000000200240B1
:108950000010024000B4C404F4F90008C400002070
:10896000C00100200148006870470000C4000020DA
:108970003F2101605B49096801F48021B1F5802F36
:1089800003D14FF4A02141600CE05649096801F47D
:108990008031B1F5803F03D14FF48031416001E077
:1089A000002141604F49096801F0010111B1012125
:1089B000C16101E00021C1614A494968C1F3072151
:1089C00001624849096801F0F001416245490968BE
:1089D00001F48071B1F5807F03D14FF48071C160E3
:1089E00001E00021C1603F494968C1F306610161AE
:1089F0003C499031096801F0040104290CD139493E
:108A00009031096801F08001802902D185218160BF
:108A100017E00521816014E032499031096801F0C6
:108A2000010161B12F499031096801F0800180296D
:108A300002D18121816004E00121816001E00021F7
:108A4000816028499431096801F0010111B10121C7
:108A5000416101E00021416122499431096801F03E
:108A60001001102901D1816101E0002181611D49BE
:108A70009831096801F0010111B10121816201E021
:108A8000002181621749096801F08071B1F1807F8E
:108A900002D10221C16201E00121C1621149C9680C
:108AA00001F0030202630F49C968C1F30311491CB5
:108AB00041630C49C968C1F3062282630949C96848
:108AC000C1F34151491C4A0002640649C968C1F317
:108AD0004161491C4A0042640249C968CA0EC26326
:108AE000704700000010024000B5FFF73BFF05494A
:108AF0008968C1F30221044A515C01F01F01C8409A
:108B000000BD00000010024004FA000800B5FFF7A5
:108B100029FF05498968C1F3C221044A515C01F06B
:108B20001F01C84000BD00000010024004FA000808
:108B3000F0B500230020DFF8D4C0DCF808C00CF04A
:108B40000C01DFF8C8C0DCF80CC00CF0030719B149
:108B50000C291ED1012F1CD1DFF8B0C0DCF800C0F9
:108B60000CF0080CBCF1000F06D1DFF8A0C0DCF857
:108B700094C0CCF3032305E0DFF890C0DCF800C01C
:108B8000CCF30313DFF888C05CF8233041B91846F2
:108B900006E0042901D11F4802E0082900D11E483F
:108BA0000C2932D1DFF864C0DCF80CC00CF00304EF
:108BB000012C09D0022C02D0032C04D101E0154A6B
:108BC00004E0154A02E000BF1A4600BF00BFDFF80C
:108BD0003CC0DCF80CC0CCF3031C0CF10106DFF840
:108BE0002CC0DCF80CC0CCF3062C0CFB02FCBCFB4C
:108BF000F6F2DFF818C0DCF80CC0CCF3416C0CF1D5
:108C0000010C4FEA4C05B2FBF5F0F0BD001002403C
:108C10000CFA00080024F40000127A002DE9F84351
:108C2000044614B90120BDE8F883FA48806800F0D2
:108C30000C06F848C06800F00307207800F0100028
:108C4000102877D11EB10C2E76D1012F74D1F148A6
:108C5000006800F0020018B1E06908B90120E2E7FD
:108C6000EC48616A006800F0080020B1E94800683B
:108C700000F0F00005E0E7489430006800F4706010
:108C8000000981421FD9606A02F0C0FE08B10120CC
:108C9000C9E700BFDF48006840F00800DD49086010
:108CA0000846006820F0F000616A0843D94908606E
:108CB00000BF0846406820F47F40216A40EA012056
:108CC000D44948601FE000BFD248006840F0080067
:108CD000D04908600846006820F0F000616A084347
:108CE000CC49086000BF0846406820F47F40216AF4
:108CF00040EA0120C74948602EB9606A02F086FE4A
:108D000008B101208FE7FFF713FFC2498968C1F35B
:108D10000311C14A515C01F01F01C840BF490860FE
:108D2000BF480068FFF7F8F88146B9F1000F4ED050
:108D3000484678E74BE0FFE7E06980B3B548006854
:108D400040F00100B3490860FEF78AFE054606E0E0
:108D5000FEF786FE401B022801D9032063E7AD48D9
:108D6000006800F002000028F2D000BFA9480068A7
:108D700040F00800A74908600846006820F0F000AD
:108D8000616A0843A349086000BF0846406820F4B0
:108D90007F40216A40EA01209E49486017E0FFE7D2
:108DA0009C48006820F001009A490860FEF758FED0
:108DB000054606E0FEF754FE401B022801D90320B9
:108DC00031E79448006800F002000028F2D12078D2
:108DD00000F0010000285CD0082E03D00C2E0AD130
:108DE000032F08D18B48006800F4003088B3606816
:108DF00078BB012017E700BF6068B0F5803F06D15F
:108E00008448006840F48030824908601AE0606855
:108E1000B0F5A02F0BD17F48006840F480207D4939
:108E200008600846006840F4803008600AE079482D
:108E3000006820F48030774908600846006820F414
:108E40008020086000BF606890B1FEF709FE05460B
:108E500007E01EE0FEF704FE401B642801D9032052
:108E6000E1E66C48006800F400300028F2D010E021
:108E7000FEF7F6FD054606E0FEF7F2FD401B64280E
:108E800001D90320CFE66348006800F400300028D1
:108E9000F2D1207800F00200022852D1042E03D033
:108EA0000C2E14D1022F12D15A48006800F48060B1
:108EB00018B1E06808B90120B5E65648406820F0CE
:108EC000FE40217C40EA01605249486039E0E06898
:108ED00000B35048006840F480704E490860FEF7C7
:108EE000BFFD054606E0FEF7BBFD401B022801D989
:108EF000032098E64748006800F480600028F2D01C
:108F00004448406820F0FE40217C40EA016041492D
:108F1000486016E03F48006820F480703D490860D2
:108F2000FEF79EFD054606E0FEF79AFD401B02286F
:108F300001D9032077E63748006800F480600028F4
:108F4000F2D1207800F00800082878D16069E0B3F9
:108F500030489430D0F8008008F01001A0698842B1
:108F60002FD008F00200022804D108F0010008B94F
:108F7000012058E608F00100C8B126489430006886
:108F800020F001002349C1F89400FEF769FD054671
:108F900006E0FEF765FD401B112801D9032042E6DB
:108FA0001C489430006800F002000028F1D11948F4
:108FB0009430006820F01000A16908431549C1F8F9
:108FC000940014489430006800E017E040F001007D
:108FD0001049C1F89400FEF743FD054606E0FEF790
:108FE0003FFD401B112801D903201CE6094894309D
:108FF000006800F002000028F1D020E0054894301D
:10900000006820F001000349C1F89400FEF728FD34
:1090100005460EE000100240F4F90008C4000020EC
:10902000C0010020FEF71CFD401B112801D90320C0
:10903000F9E5F748006800F002000028F2D1207836
:1090400000F00400042879D14FF00008F04894386B
:10905000806D00F0805088B900BFED489438806D75
:1090600040F08050EA49943988650846806D00F0E8
:109070008050009000BF00BF4FF00108E548006835
:1090800000F48070B0B9E348006840F48070E149B2
:109090000860FEF7E5FC054606E0FEF7E1FC401B34
:1090A000022801D90320BEE5DA48006800F4807088
:1090B0000028F2D0207A00F0010048B3D448001F05
:1090C000006820F08000217A01F080010843D04937
:1090D000091F0860207A00F0040078B10846006893
:1090E00040F00400CA499439C1F890000846D0F80D
:1090F000900040F00100C1F8900019E0C448001F42
:10910000006840F00100C2499439C1F890000FE0B6
:10911000BF48001F006820F00100BD499439C1F824
:1091200090000846D0F8900020F00400C1F89000AC
:10913000A068A8B1FEF794FC054609E039E0FEF707
:109140008FFC401B41F28831884201D903206AE537
:10915000AF48001F006800F002000028EFD01CE0BC
:10916000FEF77EFC054608E0FEF77AFC401B41F264
:109170008831884201D9032055E5A548001F0068C1
:1091800000F002000028EFD1A148001F006820F085
:1091900080009F499439C1F89000B8F1010F07D1C0
:1091A0009B489438806D20F08050994994398865A7
:1091B00000BF207800F02000202838D1A06AD8B164
:1091C0009348001D006840F0010091499439C1F8AE
:1091D0009800FEF745FC054606E0FEF741FC401B03
:1091E000022801D903201EE58948001D006800F00F
:1091F00002000028F1D01AE08548001D006820F028
:10920000010083499439C1F89800FEF729FC05460E
:1092100006E0FEF725FC401B022801D9032002E5E9
:109220007B48001D006800F002000028F1D1E06AD0
:1092300000287DD0E06A02287BD175489438C76841
:1092400007F00301206B814226D107F0F001606B2B
:10925000401EB1EB001F1FD107F4FE41A06BB1EB24
:10926000002F19D107F078413C20005DB1EBC06FB1
:1092700012D107F4C0014020005B0122C2EB500074
:10928000B1EB405F08D107F0C0614420005DC2EB44
:109290005000B1EB406F6FD00C2E6AD05C48943810
:1092A000006800F0806028B959489438006800F0E0
:1092B000805008B10120B6E455489438006820F089
:1092C0008070534994390860FEF7CAFB054606E0F2
:1092D000FEF7C6FB401B022801D90320A3E44C483B
:1092E0009438006800F000700028F1D1D4E90C1027
:1092F000401E41EA0011A06B41EA00214020005BC2
:109300000122C2EB500041EA40514420005DC2EB13
:10931000500041EA40613C20005D41EAC0613C48A8
:109320009438C0683C4A104001433948943801E001
:109330005DE047E0C160006840F0807034499439D6
:1093400008600846C06840F08070C860FEF788FB7F
:10935000054606E0FEF784FB401B022801D90320E6
:1093600061E42B489438006800F000700028F1D0C8
:1093700058E0012057E4FFE725489438006800F0E2
:109380000070A0BB22489438006840F080702049EB
:10939000943908600846C06840F08070C860FEF7E5
:1093A0005FFB054606E0FEF75BFB401B022801D988
:1093B000032038E416489438006800F00070002854
:1093C000F1D02FE00C2E2BD011489438006820F0FB
:1093D00080700F4994390860FEF742FB054607E0AC
:1093E000FEF73EFB401B022802D903201BE419E0D4
:1093F00007489438006800F000700028F0D1044855
:109400009438C0680549084001499439C86009E0AA
:1094100094100240007000400C809D01FCFFEEFEA5
:10942000012000E400201AE430B50246D2E900052C
:10943000441904F5807303EB8103186830BD38B517
:10944000D0E90045631903F580740094009C04EB97
:1094500081040094009C226038BD70B5044600BFB2
:1094600094F83000012801D1022070BD012084F859
:10947000300000BF022084F8310000BFCA202168FC
:10948000486253202168486200BF2068806920F448
:109490008060216888612068806920F480402168AC
:1094A0008861FEF7DDFA054614E0FEF7D9FA401BA5
:1094B000B0F57A7F0ED900BFFF202168486200BF57
:1094C000032084F8310000BF002084F8300000BF82
:1094D0000320CAE72068C06800F004000028E4D038
:1094E00000BFFF202168486200BF012084F83100DE
:1094F00000BF002084F8300000BF00BFB5E70000C7
:109500002DE9F04104460F4690461D4600BF94F8F1
:109510003000012802D10220BDE8F081012084F84A
:10952000300000BF022084F8310000BFCA2021684B
:10953000486253202168486200BF2068806920F497
:1095400080602168886104202168C8652068C0683F
:1095500000F04000F0B9FEF783FA064614E0FEF78B
:109560007FFA801BB0F57A7F0ED900BFFF202168FB
:10957000486200BF032084F8310000BF002084F857
:10958000300000BF0320C7E72068C06800F0040077
:109590000028E4D047EA05402168486120688069D6
:1095A00020F0070040EA08002168886135B11948B9
:1095B000006840F480101749086007E01548001F54
:1095C000006840F480101349091F08601148001D0D
:1095D000006840F480100F49091D08602068806908
:1095E00040F48040216888612068806940F4806090
:1095F0002168886100BFFF202168486200BF012008
:1096000084F8310000BF002084F8300000BF00BFA4
:1096100082E700000404014010B504460020FCF776
:1096200099FC10BD10B504464FF48010084908603D
:109630002068406D00F0040028B104202168C8654E
:109640002046FFF7E9FF012084F8310010BD00003B
:109650001404014070B506460B4615460F480068D5
:109660000F4900EA0104200CD870C4F3042058709C
:1096700004F03F009870C4F3423018705DB9D87898
:1096800002F00EFAD870587802F00AFA58709878FA
:1096900002F006FA9870002070BD00000428004017
:1096A0003FFFFF0070B506460B4615461848006898
:1096B00058601748001D006800F44070B0F5807FC6
:1096C00023D0134808300068C0F30E00986010489B
:1096D000083800680F4900EA0104C4F30540187017
:1096E000C4F30620587004F07F009870A00DD87065
:1096F0005DB9187802F0D4F91870587802F0D0F9F2
:109700005870987802F0CCF99870002070BD000075
:10971000082800407F7F7F0070B504460125002C9B
:1097200064D094F8310028B9002084F83000204635
:1097300000F062F84FF440606060022084F831006D
:109740002B480068C0F3001000284AD100BFCA208F
:109750002168486253202168486200BF204602F019
:109760001FFA05461DBB2068806922490840216810
:1097700088616169A0680843E169084321688969D3
:1097800008432168886121682069086120680169AF
:10979000A08941EA004021680861D4E90A01084330
:1097A0001349096821F4F85108431149086020461B
:1097B00002F01CFA05467DB92068806920F06040FF
:1097C00021688861D4E908100843A1690843216829
:1097D000896908432168886100BFFF2021684862C9
:1097E00000E0002515B9012084F83100284670BD3D
:1097F0000C280040BFFF8FFB10B5B8B0044626A868
:10980000FFF7B6F80C2026900020319001202B9015
:109810000020289026A8FFF701FA08B1FCF77AFD8E
:109820004FF400300090001225906846FEF7A6FC29
:1098300008B1FCF76FFD0948006840F40040074993
:109840009039C1F89000002211460320FEF7C8FBB2
:109850000320FEF7B1FB38B010BD000090100240AD
:1098600070B504462068C06820F0A0002168C86078
:10987000FEF7F6F8054607E0FEF7F2F8401BB0F5F4
:109880007A7F01D9032070BD2068C06800F02000F5
:109890000028F1D00020F6E74FF0E020006940F00A
:1098A00002004FF0E0210861704770B5044625467C
:1098B000681EB0F1807F01D301200FE0681E4FF0D9
:1098C000E02148610F214FF0FF3003F097FA0020AC
:1098D0004FF0E021886107200861002070BD4FF043
:1098E000E020006920F002004FF0E021086170479D
:1098F000704770477047000030B5024600BF92F8CD
:109900003C00012801D1022030BD012082F83C003A
:1099100000BF124D1068A8420BD01068B0F1804F04
:1099200007D00F4D1068A84203D00E4D1068A84212
:1099300008D11068036E23F4E03301F4E0300343F0
:10994000106803660C4624F4E0341068046500BF18
:10995000002082F83C0000BF00BFD5E7002C01408A
:10996000000400400034014070B5054600211C4849
:1099700000F07AFB81B21B480468601C194A106031
:10998000194820F8141010460068022826D31648FB
:1099900000881549498888420CDD134800884FF635
:1099A000FF71081A104949880844401C80B20F49C9
:1099B000086007E00C4840880B490988401A80B2CB
:1099C0000A4908600A48006808490968B0FBF1F0D4
:1099D0000849086008460068C000086070BD0000C3
:1099E00020020020DC000020D2000020E000002047
:1099F000C4000020D80000202DE9F04104460D46A7
:109A00001646002700BF94F83C00012802D102202E
:109A1000BDE8F081012084F83C0000BF96B9EB68F6
:109A2000D5E90012206802F059FB2068806920F017
:109A30000C002168886120688069A9680843216852
:109A4000886141E0042E13D1EB68D5E9001220684B
:109A500002F086FB2068806920F4406021688861FC
:109A600020688069A96840EA0120216888612BE0AC
:109A7000082E12D1EB68D5E90012206802F08DFBA8
:109A80002068C06920F00C002168C8612068C069A6
:109A9000A96808432168C86116E00C2E13D1EB6851
:109AA000D5E90012206802F094FB2068C06920F418
:109AB00040602168C8612068C069A96840EA012047
:109AC0002168C86100E0012700BF002084F83C0045
:109AD00000BF38469CE710B50446022084F83D00DC
